{
  "address": "0x136b70baaDA29Dd86190F85F45281b0C0d1bdeDC",
  "abi": [
    {
      "inputs": [
        {
          "internalType": "address",
          "name": "initialOwner",
          "type": "address"
        },
        {
          "internalType": "string",
          "name": "baseURI_",
          "type": "string"
        }
      ],
      "stateMutability": "nonpayable",
      "type": "constructor"
    },
    {
      "inputs": [],
      "name": "ERC721EnumerableForbiddenBatchMint",
      "type": "error"
    },
    {
      "inputs": [
        {
          "internalType": "address",
          "name": "sender",
          "type": "address"
        },
        {
          "internalType": "uint256",
          "name": "tokenId",
          "type": "uint256"
        },
        {
          "internalType": "address",
          "name": "owner",
          "type": "address"
        }
      ],
      "name": "ERC721IncorrectOwner",
      "type": "error"
    },
    {
      "inputs": [
        {
          "internalType": "address",
          "name": "operator",
          "type": "address"
        },
        {
          "internalType": "uint256",
          "name": "tokenId",
          "type": "uint256"
        }
      ],
      "name": "ERC721InsufficientApproval",
      "type": "error"
    },
    {
      "inputs": [
        {
          "internalType": "address",
          "name": "approver",
          "type": "address"
        }
      ],
      "name": "ERC721InvalidApprover",
      "type": "error"
    },
    {
      "inputs": [
        {
          "internalType": "address",
          "name": "operator",
          "type": "address"
        }
      ],
      "name": "ERC721InvalidOperator",
      "type": "error"
    },
    {
      "inputs": [
        {
          "internalType": "address",
          "name": "owner",
          "type": "address"
        }
      ],
      "name": "ERC721InvalidOwner",
      "type": "error"
    },
    {
      "inputs": [
        {
          "internalType": "address",
          "name": "receiver",
          "type": "address"
        }
      ],
      "name": "ERC721InvalidReceiver",
      "type": "error"
    },
    {
      "inputs": [
        {
          "internalType": "address",
          "name": "sender",
          "type": "address"
        }
      ],
      "name": "ERC721InvalidSender",
      "type": "error"
    },
    {
      "inputs": [
        {
          "internalType": "uint256",
          "name": "tokenId",
          "type": "uint256"
        }
      ],
      "name": "ERC721NonexistentToken",
      "type": "error"
    },
    {
      "inputs": [
        {
          "internalType": "address",
          "name": "owner",
          "type": "address"
        },
        {
          "internalType": "uint256",
          "name": "index",
          "type": "uint256"
        }
      ],
      "name": "ERC721OutOfBoundsIndex",
      "type": "error"
    },
    {
      "inputs": [
        {
          "internalType": "address",
          "name": "owner",
          "type": "address"
        }
      ],
      "name": "OwnableInvalidOwner",
      "type": "error"
    },
    {
      "inputs": [
        {
          "internalType": "address",
          "name": "account",
          "type": "address"
        }
      ],
      "name": "OwnableUnauthorizedAccount",
      "type": "error"
    },
    {
      "anonymous": false,
      "inputs": [
        {
          "indexed": true,
          "internalType": "address",
          "name": "owner",
          "type": "address"
        },
        {
          "indexed": true,
          "internalType": "address",
          "name": "approved",
          "type": "address"
        },
        {
          "indexed": true,
          "internalType": "uint256",
          "name": "tokenId",
          "type": "uint256"
        }
      ],
      "name": "Approval",
      "type": "event"
    },
    {
      "anonymous": false,
      "inputs": [
        {
          "indexed": true,
          "internalType": "address",
          "name": "owner",
          "type": "address"
        },
        {
          "indexed": true,
          "internalType": "address",
          "name": "operator",
          "type": "address"
        },
        {
          "indexed": false,
          "internalType": "bool",
          "name": "approved",
          "type": "bool"
        }
      ],
      "name": "ApprovalForAll",
      "type": "event"
    },
    {
      "anonymous": false,
      "inputs": [
        {
          "indexed": false,
          "internalType": "string",
          "name": "newBaseURI",
          "type": "string"
        }
      ],
      "name": "BaseURIUpdated",
      "type": "event"
    },
    {
      "anonymous": false,
      "inputs": [
        {
          "indexed": true,
          "internalType": "uint256",
          "name": "tokenId",
          "type": "uint256"
        },
        {
          "indexed": true,
          "internalType": "uint256",
          "name": "kittenId",
          "type": "uint256"
        },
        {
          "indexed": false,
          "internalType": "uint256",
          "name": "serial",
          "type": "uint256"
        },
        {
          "indexed": true,
          "internalType": "address",
          "name": "to",
          "type": "address"
        }
      ],
      "name": "Minted",
      "type": "event"
    },
    {
      "anonymous": false,
      "inputs": [
        {
          "indexed": true,
          "internalType": "address",
          "name": "previousOwner",
          "type": "address"
        },
        {
          "indexed": true,
          "internalType": "address",
          "name": "newOwner",
          "type": "address"
        }
      ],
      "name": "OwnershipTransferred",
      "type": "event"
    },
    {
      "anonymous": false,
      "inputs": [
        {
          "indexed": true,
          "internalType": "address",
          "name": "from",
          "type": "address"
        },
        {
          "indexed": true,
          "internalType": "address",
          "name": "to",
          "type": "address"
        },
        {
          "indexed": true,
          "internalType": "uint256",
          "name": "tokenId",
          "type": "uint256"
        }
      ],
      "name": "Transfer",
      "type": "event"
    },
    {
      "inputs": [],
      "name": "MINT_PRICE",
      "outputs": [
        {
          "internalType": "uint256",
          "name": "",
          "type": "uint256"
        }
      ],
      "stateMutability": "view",
      "type": "function"
    },
    {
      "inputs": [
        {
          "internalType": "address",
          "name": "to",
          "type": "address"
        },
        {
          "internalType": "uint256",
          "name": "tokenId",
          "type": "uint256"
        }
      ],
      "name": "approve",
      "outputs": [],
      "stateMutability": "nonpayable",
      "type": "function"
    },
    {
      "inputs": [
        {
          "internalType": "address",
          "name": "owner",
          "type": "address"
        }
      ],
      "name": "balanceOf",
      "outputs": [
        {
          "internalType": "uint256",
          "name": "",
          "type": "uint256"
        }
      ],
      "stateMutability": "view",
      "type": "function"
    },
    {
      "inputs": [],
      "name": "baseURI",
      "outputs": [
        {
          "internalType": "string",
          "name": "",
          "type": "string"
        }
      ],
      "stateMutability": "view",
      "type": "function"
    },
    {
      "inputs": [],
      "name": "defaultMaxPerKitten",
      "outputs": [
        {
          "internalType": "uint256",
          "name": "",
          "type": "uint256"
        }
      ],
      "stateMutability": "view",
      "type": "function"
    },
    {
      "inputs": [
        {
          "internalType": "uint256",
          "name": "tokenId",
          "type": "uint256"
        }
      ],
      "name": "getApproved",
      "outputs": [
        {
          "internalType": "address",
          "name": "",
          "type": "address"
        }
      ],
      "stateMutability": "view",
      "type": "function"
    },
    {
      "inputs": [
        {
          "internalType": "address",
          "name": "owner",
          "type": "address"
        },
        {
          "internalType": "address",
          "name": "operator",
          "type": "address"
        }
      ],
      "name": "isApprovedForAll",
      "outputs": [
        {
          "internalType": "bool",
          "name": "",
          "type": "bool"
        }
      ],
      "stateMutability": "view",
      "type": "function"
    },
    {
      "inputs": [
        {
          "internalType": "uint256",
          "name": "",
          "type": "uint256"
        }
      ],
      "name": "maxPerKitten",
      "outputs": [
        {
          "internalType": "uint256",
          "name": "",
          "type": "uint256"
        }
      ],
      "stateMutability": "view",
      "type": "function"
    },
    {
      "inputs": [
        {
          "internalType": "address",
          "name": "to",
          "type": "address"
        },
        {
          "internalType": "uint256",
          "name": "kittenId",
          "type": "uint256"
        }
      ],
      "name": "mintItem",
      "outputs": [
        {
          "internalType": "uint256",
          "name": "",
          "type": "uint256"
        }
      ],
      "stateMutability": "payable",
      "type": "function"
    },
    {
      "inputs": [
        {
          "internalType": "uint256",
          "name": "",
          "type": "uint256"
        }
      ],
      "name": "mintedPerKitten",
      "outputs": [
        {
          "internalType": "uint256",
          "name": "",
          "type": "uint256"
        }
      ],
      "stateMutability": "view",
      "type": "function"
    },
    {
      "inputs": [],
      "name": "name",
      "outputs": [
        {
          "internalType": "string",
          "name": "",
          "type": "string"
        }
      ],
      "stateMutability": "view",
      "type": "function"
    },
    {
      "inputs": [],
      "name": "owner",
      "outputs": [
        {
          "internalType": "address",
          "name": "",
          "type": "address"
        }
      ],
      "stateMutability": "view",
      "type": "function"
    },
    {
      "inputs": [
        {
          "internalType": "uint256",
          "name": "tokenId",
          "type": "uint256"
        }
      ],
      "name": "ownerOf",
      "outputs": [
        {
          "internalType": "address",
          "name": "",
          "type": "address"
        }
      ],
      "stateMutability": "view",
      "type": "function"
    },
    {
      "inputs": [],
      "name": "renounceOwnership",
      "outputs": [],
      "stateMutability": "nonpayable",
      "type": "function"
    },
    {
      "inputs": [
        {
          "internalType": "address",
          "name": "from",
          "type": "address"
        },
        {
          "internalType": "address",
          "name": "to",
          "type": "address"
        },
        {
          "internalType": "uint256",
          "name": "tokenId",
          "type": "uint256"
        }
      ],
      "name": "safeTransferFrom",
      "outputs": [],
      "stateMutability": "nonpayable",
      "type": "function"
    },
    {
      "inputs": [
        {
          "internalType": "address",
          "name": "from",
          "type": "address"
        },
        {
          "internalType": "address",
          "name": "to",
          "type": "address"
        },
        {
          "internalType": "uint256",
          "name": "tokenId",
          "type": "uint256"
        },
        {
          "internalType": "bytes",
          "name": "data",
          "type": "bytes"
        }
      ],
      "name": "safeTransferFrom",
      "outputs": [],
      "stateMutability": "nonpayable",
      "type": "function"
    },
    {
      "inputs": [],
      "name": "saleActive",
      "outputs": [
        {
          "internalType": "bool",
          "name": "",
          "type": "bool"
        }
      ],
      "stateMutability": "view",
      "type": "function"
    },
    {
      "inputs": [
        {
          "internalType": "address",
          "name": "operator",
          "type": "address"
        },
        {
          "internalType": "bool",
          "name": "approved",
          "type": "bool"
        }
      ],
      "name": "setApprovalForAll",
      "outputs": [],
      "stateMutability": "nonpayable",
      "type": "function"
    },
    {
      "inputs": [
        {
          "internalType": "string",
          "name": "newBase",
          "type": "string"
        }
      ],
      "name": "setBaseURI",
      "outputs": [],
      "stateMutability": "nonpayable",
      "type": "function"
    },
    {
      "inputs": [
        {
          "internalType": "uint256",
          "name": "cap",
          "type": "uint256"
        }
      ],
      "name": "setDefaultMaxPerKitten",
      "outputs": [],
      "stateMutability": "nonpayable",
      "type": "function"
    },
    {
      "inputs": [
        {
          "internalType": "uint256",
          "name": "kittenId",
          "type": "uint256"
        },
        {
          "internalType": "uint256",
          "name": "cap",
          "type": "uint256"
        }
      ],
      "name": "setMaxPerKitten",
      "outputs": [],
      "stateMutability": "nonpayable",
      "type": "function"
    },
    {
      "inputs": [
        {
          "internalType": "bool",
          "name": "active",
          "type": "bool"
        }
      ],
      "name": "setSaleActive",
      "outputs": [],
      "stateMutability": "nonpayable",
      "type": "function"
    },
    {
      "inputs": [
        {
          "internalType": "bytes4",
          "name": "interfaceId",
          "type": "bytes4"
        }
      ],
      "name": "supportsInterface",
      "outputs": [
        {
          "internalType": "bool",
          "name": "",
          "type": "bool"
        }
      ],
      "stateMutability": "view",
      "type": "function"
    },
    {
      "inputs": [],
      "name": "symbol",
      "outputs": [
        {
          "internalType": "string",
          "name": "",
          "type": "string"
        }
      ],
      "stateMutability": "view",
      "type": "function"
    },
    {
      "inputs": [
        {
          "internalType": "uint256",
          "name": "index",
          "type": "uint256"
        }
      ],
      "name": "tokenByIndex",
      "outputs": [
        {
          "internalType": "uint256",
          "name": "",
          "type": "uint256"
        }
      ],
      "stateMutability": "view",
      "type": "function"
    },
    {
      "inputs": [
        {
          "internalType": "uint256",
          "name": "",
          "type": "uint256"
        }
      ],
      "name": "tokenIdToKittenId",
      "outputs": [
        {
          "internalType": "uint256",
          "name": "",
          "type": "uint256"
        }
      ],
      "stateMutability": "view",
      "type": "function"
    },
    {
      "inputs": [
        {
          "internalType": "address",
          "name": "owner",
          "type": "address"
        },
        {
          "internalType": "uint256",
          "name": "index",
          "type": "uint256"
        }
      ],
      "name": "tokenOfOwnerByIndex",
      "outputs": [
        {
          "internalType": "uint256",
          "name": "",
          "type": "uint256"
        }
      ],
      "stateMutability": "view",
      "type": "function"
    },
    {
      "inputs": [
        {
          "internalType": "uint256",
          "name": "tokenId",
          "type": "uint256"
        }
      ],
      "name": "tokenURI",
      "outputs": [
        {
          "internalType": "string",
          "name": "",
          "type": "string"
        }
      ],
      "stateMutability": "view",
      "type": "function"
    },
    {
      "inputs": [],
      "name": "totalMinted",
      "outputs": [
        {
          "internalType": "uint256",
          "name": "",
          "type": "uint256"
        }
      ],
      "stateMutability": "view",
      "type": "function"
    },
    {
      "inputs": [],
      "name": "totalSupply",
      "outputs": [
        {
          "internalType": "uint256",
          "name": "",
          "type": "uint256"
        }
      ],
      "stateMutability": "view",
      "type": "function"
    },
    {
      "inputs": [
        {
          "internalType": "address",
          "name": "from",
          "type": "address"
        },
        {
          "internalType": "address",
          "name": "to",
          "type": "address"
        },
        {
          "internalType": "uint256",
          "name": "tokenId",
          "type": "uint256"
        }
      ],
      "name": "transferFrom",
      "outputs": [],
      "stateMutability": "nonpayable",
      "type": "function"
    },
    {
      "inputs": [
        {
          "internalType": "address",
          "name": "newOwner",
          "type": "address"
        }
      ],
      "name": "transferOwnership",
      "outputs": [],
      "stateMutability": "nonpayable",
      "type": "function"
    },
    {
      "inputs": [
        {
          "internalType": "address payable",
          "name": "to",
          "type": "address"
        }
      ],
      "name": "withdraw",
      "outputs": [],
      "stateMutability": "nonpayable",
      "type": "function"
    }
  ],
  "transactionHash": "0x72c58b3af7e53252bee002dc1f1a4899ac8d7a384c4473d77fa0cbe62650bbcd",
  "args": [
    "0xF4220e5c9882746f4F52FC61Dcfd1095c5D563e6",
    "ipfs://bafybeiblnvkisfvcxeferver2gjazzlt44mje53ql6wauv6jwcdc2utg2u/"
  ],
  "numDeployments": 1,
  "solcInputHash": "b37067c2f89207a69c4d3534ed44f7d5",
  "bytecode": "0x6080604052600a805460ff60a01b1916600160a01b178155600e553480156200002757600080fd5b5060405162002298380380620022988339810160408190526200004a9162000168565b816040518060400160405280600981526020016825b4ba3a32b739ab1960b91b8152506040518060400160405280600581526020016425a4aa2c9960d91b81525081600090816200009c9190620002ed565b506001620000ab8282620002ed565b5050506001600160a01b038116620000dd57604051631e4fbdf760e01b81526000600482015260240160405180910390fd5b620000e88162000100565b50600f620000f78282620002ed565b505050620003b9565b600a80546001600160a01b038381166001600160a01b0319831681179093556040519116919082907f8be0079c531659141344cd1fd0a4f28419497f9722a3daafe3b4186f6b6457e090600090a35050565b634e487b7160e01b600052604160045260246000fd5b600080604083850312156200017c57600080fd5b82516001600160a01b03811681146200019457600080fd5b602084810151919350906001600160401b0380821115620001b457600080fd5b818601915086601f830112620001c957600080fd5b815181811115620001de57620001de62000152565b604051601f8201601f19908116603f0116810190838211818310171562000209576200020962000152565b8160405282815289868487010111156200022257600080fd5b600093505b8284101562000246578484018601518185018701529285019262000227565b60008684830101528096505050505050509250929050565b600181811c908216806200027357607f821691505b6020821081036200029457634e487b7160e01b600052602260045260246000fd5b50919050565b601f821115620002e857600081815260208120601f850160051c81016020861015620002c35750805b601f850160051c820191505b81811015620002e457828155600101620002cf565b5050505b505050565b81516001600160401b0381111562000309576200030962000152565b62000321816200031a84546200025e565b846200029a565b602080601f831160018114620003595760008415620003405750858301515b600019600386901b1c1916600185901b178555620002e4565b600085815260208120601f198616915b828110156200038a5788860151825594840194600190910190840162000369565b5085821015620003a95787850151600019600388901b60f8161c191681555b5050505050600190811b01905550565b611ecf80620003c96000396000f3fe6080604052600436106101ee5760003560e01c806370a082311161010d578063a22cb465116100a0578063c87b56dd1161006f578063c87b56dd14610582578063d08552a9146105a2578063e985e9c5146105cf578063f2fde38b146105ef578063f6a4a3fd1461060f57600080fd5b8063a22cb46514610511578063a2309ff814610531578063b88d4fde14610547578063c002d23d1461056757600080fd5b806395d89b41116100dc57806395d89b411461049957806396c498a0146104ae5780639775b17b146104db57806399019322146104f157600080fd5b806370a0823114610426578063715018a614610446578063841718a61461045b5780638da5cb5b1461047b57600080fd5b80633620080a1161018557806355f804b31161015457806355f804b3146103b05780636352211e146103d057806368428a1b146103f05780636c0360eb1461041157600080fd5b80633620080a1461032357806342842e0e146103505780634f6ccce71461037057806351cff8d91461039057600080fd5b8063095ea7b3116101c1578063095ea7b3146102a457806318160ddd146102c457806323b872dd146102e35780632f745c591461030357600080fd5b806301ffc9a7146101f357806306fdde0314610228578063081812fc1461024a578063093b9eda14610282575b600080fd5b3480156101ff57600080fd5b5061021361020e3660046118a4565b610622565b60405190151581526020015b60405180910390f35b34801561023457600080fd5b5061023d610633565b60405161021f9190611918565b34801561025657600080fd5b5061026a61026536600461192b565b6106c5565b6040516001600160a01b03909116815260200161021f565b34801561028e57600080fd5b506102a261029d36600461192b565b6106ee565b005b3480156102b057600080fd5b506102a26102bf366004611959565b610748565b3480156102d057600080fd5b506008545b60405190815260200161021f565b3480156102ef57600080fd5b506102a26102fe366004611985565b610757565b34801561030f57600080fd5b506102d561031e366004611959565b6107e2565b34801561032f57600080fd5b506102d561033e36600461192b565b600d6020526000908152604090205481565b34801561035c57600080fd5b506102a261036b366004611985565b610847565b34801561037c57600080fd5b506102d561038b36600461192b565b610867565b34801561039c57600080fd5b506102a26103ab3660046119c6565b6108c0565b3480156103bc57600080fd5b506102a26103cb366004611a6f565b61093c565b3480156103dc57600080fd5b5061026a6103eb36600461192b565b61098b565b3480156103fc57600080fd5b50600a5461021390600160a01b900460ff1681565b34801561041d57600080fd5b5061023d610996565b34801561043257600080fd5b506102d56104413660046119c6565b6109a5565b34801561045257600080fd5b506102a26109ed565b34801561046757600080fd5b506102a2610476366004611acd565b610a01565b34801561048757600080fd5b50600a546001600160a01b031661026a565b3480156104a557600080fd5b5061023d610a27565b3480156104ba57600080fd5b506102d56104c936600461192b565b60106020526000908152604090205481565b3480156104e757600080fd5b506102d5600e5481565b3480156104fd57600080fd5b506102a261050c366004611ae8565b610a36565b34801561051d57600080fd5b506102a261052c366004611b0a565b610ae2565b34801561053d57600080fd5b506102d5600b5481565b34801561055357600080fd5b506102a2610562366004611b3f565b610aed565b34801561057357600080fd5b506102d566b1a2bc2ec5000081565b34801561058e57600080fd5b5061023d61059d36600461192b565b610b04565b3480156105ae57600080fd5b506102d56105bd36600461192b565b600c6020526000908152604090205481565b3480156105db57600080fd5b506102136105ea366004611bbf565b610bf6565b3480156105fb57600080fd5b506102a261060a3660046119c6565b610c24565b6102d561061d366004611959565b610c62565b600061062d82610e53565b92915050565b60606000805461064290611bf8565b80601f016020809104026020016040519081016040528092919081815260200182805461066e90611bf8565b80156106bb5780601f10610690576101008083540402835291602001916106bb565b820191906000526020600020905b81548152906001019060200180831161069e57829003601f168201915b5050505050905090565b60006106d082610e78565b506000828152600460205260409020546001600160a01b031661062d565b6106f6610eb1565b60008111801561070857506127108111155b6107435760405162461bcd60e51b81526020600482015260076024820152660626164206361760cc1b60448201526064015b60405180910390fd5b600e55565b610753828233610ede565b5050565b6001600160a01b03821661078157604051633250574960e11b81526000600482015260240161073a565b600061078e838333610eeb565b9050836001600160a01b0316816001600160a01b0316146107dc576040516364283d7b60e01b81526001600160a01b038086166004830152602482018490528216604482015260640161073a565b50505050565b60006107ed836109a5565b821061081e5760405163295f44f760e21b81526001600160a01b03841660048201526024810183905260440161073a565b506001600160a01b03919091166000908152600660209081526040808320938352929052205490565b61086283838360405180602001604052806000815250610aed565b505050565b600061087260085490565b821061089b5760405163295f44f760e21b8152600060048201526024810183905260440161073a565b600882815481106108ae576108ae611c32565b90600052602060002001549050919050565b6108c8610eb1565b6001600160a01b0381166109075760405162461bcd60e51b815260206004820152600660248201526562616420746f60d01b604482015260640161073a565b6040516001600160a01b038216904780156108fc02916000818181858888f19350505050158015610753573d6000803e3d6000fd5b610944610eb1565b600f6109508282611c96565b507f6741b2fc379fad678116fe3d4d4b9a1a184ab53ba36b86ad0fa66340b1ab41ad816040516109809190611918565b60405180910390a150565b600061062d82610e78565b6060600f805461064290611bf8565b60006001600160a01b0382166109d1576040516322718ad960e21b81526000600482015260240161073a565b506001600160a01b031660009081526003602052604090205490565b6109f5610eb1565b6109ff6000610f00565b565b610a09610eb1565b600a8054911515600160a01b0260ff60a01b19909216919091179055565b60606001805461064290611bf8565b610a3e610eb1565b600081118015610a5057506127108111155b610a865760405162461bcd60e51b81526020600482015260076024820152660626164206361760cc1b604482015260640161073a565b6000828152600c6020526040902054811015610ad05760405162461bcd60e51b81526020600482015260096024820152681b1d081b5a5b9d195960ba1b604482015260640161073a565b6000918252600d602052604090912055565b610753338383610f52565b610af8848484610757565b6107dc84848484610ff1565b6000818152600260205260409020546060906001600160a01b0316610b6b5760405162461bcd60e51b815260206004820152601860248201527f4552433732313a20696e76616c696420746f6b656e2049440000000000000000604482015260640161073a565b60008281526010602052604081205490819003610bc35760405162461bcd60e51b81526020600482015260166024820152756d697373696e67206b697474656e206d617070696e6760501b604482015260640161073a565b600f610bce8261111a565b604051602001610bdf929190611d56565b604051602081830303815290604052915050919050565b6001600160a01b03918216600090815260056020908152604080832093909416825291909152205460ff1690565b610c2c610eb1565b6001600160a01b038116610c5657604051631e4fbdf760e01b81526000600482015260240161073a565b610c5f81610f00565b50565b600a54600090600160a01b900460ff16610ca95760405162461bcd60e51b815260206004820152600860248201526739b0b6329037b33360c11b604482015260640161073a565b66b1a2bc2ec50000341015610cf55760405162461bcd60e51b8152602060048201526012602482015271696e73756666696369656e742076616c756560701b604482015260640161073a565b60008211610d345760405162461bcd60e51b815260206004820152600c60248201526b189859081ada5d1d195b925960a21b604482015260640161073a565b6000828152600d602052604081205490819003610d505750600e545b6000838152600c60205260409020548111610d9f5760405162461bcd60e51b815260206004820152600f60248201526e1ada5d1d195b881cdbdb19081bdd5d608a1b604482015260640161073a565b6000838152600c6020526040812054610db9906001611e03565b6000858152600c60205260408120829055600b8054929350600192909190610de2908490611e03565b9091555050600b546000818152601060205260409020859055610e0586826111ad565b856001600160a01b031685827fd97cccf089c5a64dadd1ae1759a388c0d44fb33bb35b4b51f214d8250d3683b885604051610e4291815260200190565b60405180910390a495945050505050565b60006001600160e01b0319821663780e9d6360e01b148061062d575061062d826111c7565b6000818152600260205260408120546001600160a01b03168061062d57604051637e27328960e01b81526004810184905260240161073a565b600a546001600160a01b031633146109ff5760405163118cdaa760e01b815233600482015260240161073a565b6108628383836001611217565b6000610ef884848461131d565b949350505050565b600a80546001600160a01b038381166001600160a01b0319831681179093556040519116919082907f8be0079c531659141344cd1fd0a4f28419497f9722a3daafe3b4186f6b6457e090600090a35050565b6001600160a01b038216610f8457604051630b61174360e31b81526001600160a01b038316600482015260240161073a565b6001600160a01b03838116600081815260056020908152604080832094871680845294825291829020805460ff191686151590811790915591519182527f17307eab39ab6107e8899845ad3d59bd9653f200f220920489ca2b5937696c31910160405180910390a3505050565b6001600160a01b0383163b156107dc57604051630a85bd0160e11b81526001600160a01b0384169063150b7a0290611033903390889087908790600401611e16565b6020604051808303816000875af192505050801561106e575060408051601f3d908101601f1916820190925261106b91810190611e53565b60015b6110d7573d80801561109c576040519150601f19603f3d011682016040523d82523d6000602084013e6110a1565b606091505b5080516000036110cf57604051633250574960e11b81526001600160a01b038516600482015260240161073a565b805181602001fd5b6001600160e01b03198116630a85bd0160e11b1461111357604051633250574960e11b81526001600160a01b038516600482015260240161073a565b5050505050565b60606000611127836113ea565b600101905060008167ffffffffffffffff811115611147576111476119e3565b6040519080825280601f01601f191660200182016040528015611171576020820181803683370190505b5090508181016020015b600019016f181899199a1a9b1b9c1cb0b131b232b360811b600a86061a8153600a850494508461117b57509392505050565b6107538282604051806020016040528060008152506114c2565b60006001600160e01b031982166380ac58cd60e01b14806111f857506001600160e01b03198216635b5e139f60e01b145b8061062d57506301ffc9a760e01b6001600160e01b031983161461062d565b808061122b57506001600160a01b03821615155b156112ed57600061123b84610e78565b90506001600160a01b038316158015906112675750826001600160a01b0316816001600160a01b031614155b801561127a57506112788184610bf6565b155b156112a35760405163a9fbf51f60e01b81526001600160a01b038416600482015260240161073a565b81156112eb5783856001600160a01b0316826001600160a01b03167f8c5be1e5ebec7d5bd14f71427d1e84f3dd0314c0f7b2291e5b200ac8c7c3b92560405160405180910390a45b505b5050600090815260046020526040902080546001600160a01b0319166001600160a01b0392909216919091179055565b60008061132b8585856114d9565b90506001600160a01b0381166113885761138384600880546000838152600960205260408120829055600182018355919091527ff3f7a9fe364faab93b216da50a3214154f22a0a2b415b23a84c8169e8b636ee30155565b6113ab565b846001600160a01b0316816001600160a01b0316146113ab576113ab81856115d2565b6001600160a01b0385166113c7576113c284611663565b610ef8565b846001600160a01b0316816001600160a01b031614610ef857610ef88585611712565b60008072184f03e93ff9f4daa797ed6e38ed64bf6a1f0160401b83106114295772184f03e93ff9f4daa797ed6e38ed64bf6a1f0160401b830492506040015b6d04ee2d6d415b85acef81000000008310611455576d04ee2d6d415b85acef8100000000830492506020015b662386f26fc10000831061147357662386f26fc10000830492506010015b6305f5e100831061148b576305f5e100830492506008015b612710831061149f57612710830492506004015b606483106114b1576064830492506002015b600a831061062d5760010192915050565b6114cc8383611762565b6108626000848484610ff1565b6000828152600260205260408120546001600160a01b0390811690831615611506576115068184866117c7565b6001600160a01b0381161561154457611523600085600080611217565b6001600160a01b038116600090815260036020526040902080546000190190555b6001600160a01b03851615611573576001600160a01b0385166000908152600360205260409020805460010190555b60008481526002602052604080822080546001600160a01b0319166001600160a01b0389811691821790925591518793918516917fddf252ad1be2c89b69c2b068fc378daa952ba7f163c4a11628f55a4df523b3ef91a4949350505050565b60006115dd836109a5565b600083815260076020526040902054909150808214611630576001600160a01b03841660009081526006602090815260408083208584528252808320548484528184208190558352600790915290208190555b5060009182526007602090815260408084208490556001600160a01b039094168352600681528383209183525290812055565b60085460009061167590600190611e70565b6000838152600960205260408120546008805493945090928490811061169d5761169d611c32565b9060005260206000200154905080600883815481106116be576116be611c32565b60009182526020808320909101929092558281526009909152604080822084905585825281205560088054806116f6576116f6611e83565b6001900381819060005260206000200160009055905550505050565b6000600161171f846109a5565b6117299190611e70565b6001600160a01b039093166000908152600660209081526040808320868452825280832085905593825260079052919091209190915550565b6001600160a01b03821661178c57604051633250574960e11b81526000600482015260240161073a565b600061179a83836000610eeb565b90506001600160a01b03811615610862576040516339e3563760e11b81526000600482015260240161073a565b6117d283838361182b565b610862576001600160a01b03831661180057604051637e27328960e01b81526004810182905260240161073a565b60405163177e802f60e01b81526001600160a01b03831660048201526024810182905260440161073a565b60006001600160a01b03831615801590610ef85750826001600160a01b0316846001600160a01b0316148061186557506118658484610bf6565b80610ef85750506000908152600460205260409020546001600160a01b03908116911614919050565b6001600160e01b031981168114610c5f57600080fd5b6000602082840312156118b657600080fd5b81356118c18161188e565b9392505050565b60005b838110156118e35781810151838201526020016118cb565b50506000910152565b600081518084526119048160208601602086016118c8565b601f01601f19169290920160200192915050565b6020815260006118c160208301846118ec565b60006020828403121561193d57600080fd5b5035919050565b6001600160a01b0381168114610c5f57600080fd5b6000806040838503121561196c57600080fd5b823561197781611944565b946020939093013593505050565b60008060006060848603121561199a57600080fd5b83356119a581611944565b925060208401356119b581611944565b929592945050506040919091013590565b6000602082840312156119d857600080fd5b81356118c181611944565b634e487b7160e01b600052604160045260246000fd5b600067ffffffffffffffff80841115611a1457611a146119e3565b604051601f8501601f19908116603f01168101908282118183101715611a3c57611a3c6119e3565b81604052809350858152868686011115611a5557600080fd5b858560208301376000602087830101525050509392505050565b600060208284031215611a8157600080fd5b813567ffffffffffffffff811115611a9857600080fd5b8201601f81018413611aa957600080fd5b610ef8848235602084016119f9565b80358015158114611ac857600080fd5b919050565b600060208284031215611adf57600080fd5b6118c182611ab8565b60008060408385031215611afb57600080fd5b50508035926020909101359150565b60008060408385031215611b1d57600080fd5b8235611b2881611944565b9150611b3660208401611ab8565b90509250929050565b60008060008060808587031215611b5557600080fd5b8435611b6081611944565b93506020850135611b7081611944565b925060408501359150606085013567ffffffffffffffff811115611b9357600080fd5b8501601f81018713611ba457600080fd5b611bb3878235602084016119f9565b91505092959194509250565b60008060408385031215611bd257600080fd5b8235611bdd81611944565b91506020830135611bed81611944565b809150509250929050565b600181811c90821680611c0c57607f821691505b602082108103611c2c57634e487b7160e01b600052602260045260246000fd5b50919050565b634e487b7160e01b600052603260045260246000fd5b601f82111561086257600081815260208120601f850160051c81016020861015611c6f5750805b601f850160051c820191505b81811015611c8e57828155600101611c7b565b505050505050565b815167ffffffffffffffff811115611cb057611cb06119e3565b611cc481611cbe8454611bf8565b84611c48565b602080601f831160018114611cf95760008415611ce15750858301515b600019600386901b1c1916600185901b178555611c8e565b600085815260208120601f198616915b82811015611d2857888601518255948401946001909101908401611d09565b5085821015611d465787850151600019600388901b60f8161c191681555b5050505050600190811b01905550565b6000808454611d6481611bf8565b60018281168015611d7c5760018114611d9157611dc0565b60ff1984168752821515830287019450611dc0565b8860005260208060002060005b85811015611db75781548a820152908401908201611d9e565b50505082870194505b505050508351611dd48183602088016118c8565b64173539b7b760d91b9101908152600501949350505050565b634e487b7160e01b600052601160045260246000fd5b8082018082111561062d5761062d611ded565b6001600160a01b0385811682528416602082015260408101839052608060608201819052600090611e49908301846118ec565b9695505050505050565b600060208284031215611e6557600080fd5b81516118c18161188e565b8181038181111561062d5761062d611ded565b634e487b7160e01b600052603160045260246000fdfea2646970667358221220f04db09ea9f7f41f94fe9317d6adc17dc3ef9ca1eb670e89e0c100bb31ed08db64736f6c63430008140033",
  "devdoc": {
    "errors": {
      "ERC721EnumerableForbiddenBatchMint()": [
        {
          "details": "Batch mint is not allowed."
        }
      ],
      "ERC721IncorrectOwner(address,uint256,address)": [
        {
          "details": "Indicates an error related to the ownership over a particular token. Used in transfers.",
          "params": {
            "owner": "Address of the current owner of a token.",
            "sender": "Address whose tokens are being transferred.",
            "tokenId": "Identifier number of a token."
          }
        }
      ],
      "ERC721InsufficientApproval(address,uint256)": [
        {
          "details": "Indicates a failure with the `operator`s approval. Used in transfers.",
          "params": {
            "operator": "Address that may be allowed to operate on tokens without being their owner.",
            "tokenId": "Identifier number of a token."
          }
        }
      ],
      "ERC721InvalidApprover(address)": [
        {
          "details": "Indicates a failure with the `approver` of a token to be approved. Used in approvals.",
          "params": {
            "approver": "Address initiating an approval operation."
          }
        }
      ],
      "ERC721InvalidOperator(address)": [
        {
          "details": "Indicates a failure with the `operator` to be approved. Used in approvals.",
          "params": {
            "operator": "Address that may be allowed to operate on tokens without being their owner."
          }
        }
      ],
      "ERC721InvalidOwner(address)": [
        {
          "details": "Indicates that an address can't be an owner. For example, `address(0)` is a forbidden owner in EIP-20. Used in balance queries.",
          "params": {
            "owner": "Address of the current owner of a token."
          }
        }
      ],
      "ERC721InvalidReceiver(address)": [
        {
          "details": "Indicates a failure with the token `receiver`. Used in transfers.",
          "params": {
            "receiver": "Address to which tokens are being transferred."
          }
        }
      ],
      "ERC721InvalidSender(address)": [
        {
          "details": "Indicates a failure with the token `sender`. Used in transfers.",
          "params": {
            "sender": "Address whose tokens are being transferred."
          }
        }
      ],
      "ERC721NonexistentToken(uint256)": [
        {
          "details": "Indicates a `tokenId` whose `owner` is the zero address.",
          "params": {
            "tokenId": "Identifier number of a token."
          }
        }
      ],
      "ERC721OutOfBoundsIndex(address,uint256)": [
        {
          "details": "An `owner`'s token query was out of bounds for `index`. NOTE: The owner being `address(0)` indicates a global out of bounds index."
        }
      ],
      "OwnableInvalidOwner(address)": [
        {
          "details": "The owner is not a valid owner account. (eg. `address(0)`)"
        }
      ],
      "OwnableUnauthorizedAccount(address)": [
        {
          "details": "The caller account is not authorized to perform an operation."
        }
      ]
    },
    "events": {
      "Approval(address,address,uint256)": {
        "details": "Emitted when `owner` enables `approved` to manage the `tokenId` token."
      },
      "ApprovalForAll(address,address,bool)": {
        "details": "Emitted when `owner` enables or disables (`approved`) `operator` to manage all of its assets."
      },
      "Transfer(address,address,uint256)": {
        "details": "Emitted when `tokenId` token is transferred from `from` to `to`."
      }
    },
    "kind": "dev",
    "methods": {
      "approve(address,uint256)": {
        "details": "See {IERC721-approve}."
      },
      "balanceOf(address)": {
        "details": "See {IERC721-balanceOf}."
      },
      "getApproved(uint256)": {
        "details": "See {IERC721-getApproved}."
      },
      "isApprovedForAll(address,address)": {
        "details": "See {IERC721-isApprovedForAll}."
      },
      "name()": {
        "details": "See {IERC721Metadata-name}."
      },
      "owner()": {
        "details": "Returns the address of the current owner."
      },
      "ownerOf(uint256)": {
        "details": "See {IERC721-ownerOf}."
      },
      "renounceOwnership()": {
        "details": "Leaves the contract without owner. It will not be possible to call `onlyOwner` functions. Can only be called by the current owner. NOTE: Renouncing ownership will leave the contract without an owner, thereby disabling any functionality that is only available to the owner."
      },
      "safeTransferFrom(address,address,uint256)": {
        "details": "See {IERC721-safeTransferFrom}."
      },
      "safeTransferFrom(address,address,uint256,bytes)": {
        "details": "See {IERC721-safeTransferFrom}."
      },
      "setApprovalForAll(address,bool)": {
        "details": "See {IERC721-setApprovalForAll}."
      },
      "symbol()": {
        "details": "See {IERC721Metadata-symbol}."
      },
      "tokenByIndex(uint256)": {
        "details": "See {IERC721Enumerable-tokenByIndex}."
      },
      "tokenOfOwnerByIndex(address,uint256)": {
        "details": "See {IERC721Enumerable-tokenOfOwnerByIndex}."
      },
      "tokenURI(uint256)": {
        "details": "See {IERC721Metadata-tokenURI}."
      },
      "totalSupply()": {
        "details": "See {IERC721Enumerable-totalSupply}."
      },
      "transferFrom(address,address,uint256)": {
        "details": "See {IERC721-transferFrom}."
      },
      "transferOwnership(address)": {
        "details": "Transfers ownership of the contract to a new account (`newOwner`). Can only be called by the current owner."
      }
    },
    "version": 1
  },
  "userdoc": {
    "kind": "user",
    "methods": {},
    "notice": "KittensV2 (ERC721) - Contract-derives tokenURI from a baseURI and kittenId - Base URI pattern (IPFS): ipfs://<directoryCID>/<kittenId>.json - Editions model: each kittenId can be minted multiple times (serials) - Token ID scheme: tokenId = kittenId * 1_000_000 + serial - No per-token URI storage (prevents malformed URIs) # Reason: Make tokenURI deterministic and \"Relic-like\" (derived on-chain), while keeping IPFS-only metadata hosting.",
    "version": 1
  },
  "storageLayout": {
    "storage": [
      {
        "astId": 349,
        "contract": "contracts/KittensV2.sol:KittensV2",
        "label": "_name",
        "offset": 0,
        "slot": "0",
        "type": "t_string_storage"
      },
      {
        "astId": 351,
        "contract": "contracts/KittensV2.sol:KittensV2",
        "label": "_symbol",
        "offset": 0,
        "slot": "1",
        "type": "t_string_storage"
      },
      {
        "astId": 355,
        "contract": "contracts/KittensV2.sol:KittensV2",
        "label": "_owners",
        "offset": 0,
        "slot": "2",
        "type": "t_mapping(t_uint256,t_address)"
      },
      {
        "astId": 359,
        "contract": "contracts/KittensV2.sol:KittensV2",
        "label": "_balances",
        "offset": 0,
        "slot": "3",
        "type": "t_mapping(t_address,t_uint256)"
      },
      {
        "astId": 363,
        "contract": "contracts/KittensV2.sol:KittensV2",
        "label": "_tokenApprovals",
        "offset": 0,
        "slot": "4",
        "type": "t_mapping(t_uint256,t_address)"
      },
      {
        "astId": 369,
        "contract": "contracts/KittensV2.sol:KittensV2",
        "label": "_operatorApprovals",
        "offset": 0,
        "slot": "5",
        "type": "t_mapping(t_address,t_mapping(t_address,t_bool))"
      },
      {
        "astId": 1479,
        "contract": "contracts/KittensV2.sol:KittensV2",
        "label": "_ownedTokens",
        "offset": 0,
        "slot": "6",
        "type": "t_mapping(t_address,t_mapping(t_uint256,t_uint256))"
      },
      {
        "astId": 1483,
        "contract": "contracts/KittensV2.sol:KittensV2",
        "label": "_ownedTokensIndex",
        "offset": 0,
        "slot": "7",
        "type": "t_mapping(t_uint256,t_uint256)"
      },
      {
        "astId": 1486,
        "contract": "contracts/KittensV2.sol:KittensV2",
        "label": "_allTokens",
        "offset": 0,
        "slot": "8",
        "type": "t_array(t_uint256)dyn_storage"
      },
      {
        "astId": 1490,
        "contract": "contracts/KittensV2.sol:KittensV2",
        "label": "_allTokensIndex",
        "offset": 0,
        "slot": "9",
        "type": "t_mapping(t_uint256,t_uint256)"
      },
      {
        "astId": 8,
        "contract": "contracts/KittensV2.sol:KittensV2",
        "label": "_owner",
        "offset": 0,
        "slot": "10",
        "type": "t_address"
      },
      {
        "astId": 3865,
        "contract": "contracts/KittensV2.sol:KittensV2",
        "label": "saleActive",
        "offset": 20,
        "slot": "10",
        "type": "t_bool"
      },
      {
        "astId": 3867,
        "contract": "contracts/KittensV2.sol:KittensV2",
        "label": "totalMinted",
        "offset": 0,
        "slot": "11",
        "type": "t_uint256"
      },
      {
        "astId": 3871,
        "contract": "contracts/KittensV2.sol:KittensV2",
        "label": "mintedPerKitten",
        "offset": 0,
        "slot": "12",
        "type": "t_mapping(t_uint256,t_uint256)"
      },
      {
        "astId": 3875,
        "contract": "contracts/KittensV2.sol:KittensV2",
        "label": "maxPerKitten",
        "offset": 0,
        "slot": "13",
        "type": "t_mapping(t_uint256,t_uint256)"
      },
      {
        "astId": 3878,
        "contract": "contracts/KittensV2.sol:KittensV2",
        "label": "defaultMaxPerKitten",
        "offset": 0,
        "slot": "14",
        "type": "t_uint256"
      },
      {
        "astId": 3880,
        "contract": "contracts/KittensV2.sol:KittensV2",
        "label": "_baseTokenURI",
        "offset": 0,
        "slot": "15",
        "type": "t_string_storage"
      },
      {
        "astId": 3884,
        "contract": "contracts/KittensV2.sol:KittensV2",
        "label": "tokenIdToKittenId",
        "offset": 0,
        "slot": "16",
        "type": "t_mapping(t_uint256,t_uint256)"
      }
    ],
    "types": {
      "t_address": {
        "encoding": "inplace",
        "label": "address",
        "numberOfBytes": "20"
      },
      "t_array(t_uint256)dyn_storage": {
        "base": "t_uint256",
        "encoding": "dynamic_array",
        "label": "uint256[]",
        "numberOfBytes": "32"
      },
      "t_bool": {
        "encoding": "inplace",
        "label": "bool",
        "numberOfBytes": "1"
      },
      "t_mapping(t_address,t_bool)": {
        "encoding": "mapping",
        "key": "t_address",
        "label": "mapping(address => bool)",
        "numberOfBytes": "32",
        "value": "t_bool"
      },
      "t_mapping(t_address,t_mapping(t_address,t_bool))": {
        "encoding": "mapping",
        "key": "t_address",
        "label": "mapping(address => mapping(address => bool))",
        "numberOfBytes": "32",
        "value": "t_mapping(t_address,t_bool)"
      },
      "t_mapping(t_address,t_mapping(t_uint256,t_uint256))": {
        "encoding": "mapping",
        "key": "t_address",
        "label": "mapping(address => mapping(uint256 => uint256))",
        "numberOfBytes": "32",
        "value": "t_mapping(t_uint256,t_uint256)"
      },
      "t_mapping(t_address,t_uint256)": {
        "encoding": "mapping",
        "key": "t_address",
        "label": "mapping(address => uint256)",
        "numberOfBytes": "32",
        "value": "t_uint256"
      },
      "t_mapping(t_uint256,t_address)": {
        "encoding": "mapping",
        "key": "t_uint256",
        "label": "mapping(uint256 => address)",
        "numberOfBytes": "32",
        "value": "t_address"
      },
      "t_mapping(t_uint256,t_uint256)": {
        "encoding": "mapping",
        "key": "t_uint256",
        "label": "mapping(uint256 => uint256)",
        "numberOfBytes": "32",
        "value": "t_uint256"
      },
      "t_string_storage": {
        "encoding": "bytes",
        "label": "string",
        "numberOfBytes": "32"
      },
      "t_uint256": {
        "encoding": "inplace",
        "label": "uint256",
        "numberOfBytes": "32"
      }
    }
  }
}